066000100000122623022026234514                                                                                                                                                                                                                                                                                                                                                                                                              
066000200000200012345678901JOAO DA SILVA NACIONAL                                                          RUA DAS FLORES                          100       CENTRO              RIO DE JANEIRO                RJ20000000                                                                                                                                                                                                                   
066000200000300000000000000JOHN DOE INTERNATIONAL                                                          5TH AVENUE                              725                           NEW YORK                      NY10022                                                                                                                                                                                                                      
0660999000004000002                                                                                                                                                                                                                                                                                                                                                                                                                         
